{
  "contractName": "MINEX",
  "abi": [
    {
      "inputs": [],
      "stateMutability": "nonpayable",
      "type": "constructor"
    },
    {
      "anonymous": false,
      "inputs": [
        {
          "indexed": true,
          "internalType": "address",
          "name": "owner",
          "type": "address"
        },
        {
          "indexed": true,
          "internalType": "address",
          "name": "spender",
          "type": "address"
        },
        {
          "indexed": false,
          "internalType": "uint256",
          "name": "value",
          "type": "uint256"
        }
      ],
      "name": "Approval",
      "type": "event"
    },
    {
      "anonymous": false,
      "inputs": [
        {
          "indexed": true,
          "internalType": "address",
          "name": "buyer",
          "type": "address"
        },
        {
          "indexed": false,
          "internalType": "uint256",
          "name": "amount",
          "type": "uint256"
        }
      ],
      "name": "Buy",
      "type": "event"
    },
    {
      "anonymous": false,
      "inputs": [
        {
          "indexed": true,
          "internalType": "address",
          "name": "previousOwner",
          "type": "address"
        },
        {
          "indexed": true,
          "internalType": "address",
          "name": "newOwner",
          "type": "address"
        }
      ],
      "name": "OwnershipTransferred",
      "type": "event"
    },
    {
      "anonymous": false,
      "inputs": [
        {
          "indexed": true,
          "internalType": "address",
          "name": "seller",
          "type": "address"
        },
        {
          "indexed": false,
          "internalType": "uint256",
          "name": "amount",
          "type": "uint256"
        }
      ],
      "name": "Sell",
      "type": "event"
    },
    {
      "anonymous": false,
      "inputs": [
        {
          "indexed": true,
          "internalType": "address",
          "name": "from",
          "type": "address"
        },
        {
          "indexed": true,
          "internalType": "address",
          "name": "to",
          "type": "address"
        },
        {
          "indexed": false,
          "internalType": "uint256",
          "name": "value",
          "type": "uint256"
        }
      ],
      "name": "Transfer",
      "type": "event"
    },
    {
      "inputs": [
        {
          "internalType": "address",
          "name": "owner",
          "type": "address"
        },
        {
          "internalType": "address",
          "name": "spender",
          "type": "address"
        }
      ],
      "name": "allowance",
      "outputs": [
        {
          "internalType": "uint256",
          "name": "",
          "type": "uint256"
        }
      ],
      "stateMutability": "view",
      "type": "function"
    },
    {
      "inputs": [
        {
          "internalType": "address",
          "name": "spender",
          "type": "address"
        },
        {
          "internalType": "uint256",
          "name": "amount",
          "type": "uint256"
        }
      ],
      "name": "approve",
      "outputs": [
        {
          "internalType": "bool",
          "name": "",
          "type": "bool"
        }
      ],
      "stateMutability": "nonpayable",
      "type": "function"
    },
    {
      "inputs": [
        {
          "internalType": "address",
          "name": "account",
          "type": "address"
        }
      ],
      "name": "balanceOf",
      "outputs": [
        {
          "internalType": "uint256",
          "name": "",
          "type": "uint256"
        }
      ],
      "stateMutability": "view",
      "type": "function"
    },
    {
      "inputs": [],
      "name": "decimals",
      "outputs": [
        {
          "internalType": "uint8",
          "name": "",
          "type": "uint8"
        }
      ],
      "stateMutability": "view",
      "type": "function"
    },
    {
      "inputs": [],
      "name": "exchangeRate",
      "outputs": [
        {
          "internalType": "uint256",
          "name": "",
          "type": "uint256"
        }
      ],
      "stateMutability": "view",
      "type": "function"
    },
    {
      "inputs": [
        {
          "internalType": "address",
          "name": "",
          "type": "address"
        }
      ],
      "name": "hasPurchased",
      "outputs": [
        {
          "internalType": "bool",
          "name": "",
          "type": "bool"
        }
      ],
      "stateMutability": "view",
      "type": "function"
    },
    {
      "inputs": [],
      "name": "marketingWallet",
      "outputs": [
        {
          "internalType": "address",
          "name": "",
          "type": "address"
        }
      ],
      "stateMutability": "view",
      "type": "function"
    },
    {
      "inputs": [],
      "name": "name",
      "outputs": [
        {
          "internalType": "string",
          "name": "",
          "type": "string"
        }
      ],
      "stateMutability": "view",
      "type": "function"
    },
    {
      "inputs": [],
      "name": "owner",
      "outputs": [
        {
          "internalType": "address",
          "name": "",
          "type": "address"
        }
      ],
      "stateMutability": "view",
      "type": "function"
    },
    {
      "inputs": [],
      "name": "paymentToken",
      "outputs": [
        {
          "internalType": "contract IERC20Metadata",
          "name": "",
          "type": "address"
        }
      ],
      "stateMutability": "view",
      "type": "function"
    },
    {
      "inputs": [],
      "name": "referralReward",
      "outputs": [
        {
          "internalType": "uint256",
          "name": "",
          "type": "uint256"
        }
      ],
      "stateMutability": "view",
      "type": "function"
    },
    {
      "inputs": [
        {
          "internalType": "address",
          "name": "",
          "type": "address"
        },
        {
          "internalType": "uint256",
          "name": "",
          "type": "uint256"
        }
      ],
      "name": "referrals",
      "outputs": [
        {
          "internalType": "address",
          "name": "referrer",
          "type": "address"
        },
        {
          "internalType": "uint256",
          "name": "tokensEarned",
          "type": "uint256"
        }
      ],
      "stateMutability": "view",
      "type": "function"
    },
    {
      "inputs": [],
      "name": "renounceOwnership",
      "outputs": [],
      "stateMutability": "nonpayable",
      "type": "function"
    },
    {
      "inputs": [],
      "name": "symbol",
      "outputs": [
        {
          "internalType": "string",
          "name": "",
          "type": "string"
        }
      ],
      "stateMutability": "view",
      "type": "function"
    },
    {
      "inputs": [
        {
          "internalType": "address",
          "name": "",
          "type": "address"
        }
      ],
      "name": "totalReferralEarnings",
      "outputs": [
        {
          "internalType": "uint256",
          "name": "",
          "type": "uint256"
        }
      ],
      "stateMutability": "view",
      "type": "function"
    },
    {
      "inputs": [],
      "name": "totalReferralsDistributed",
      "outputs": [
        {
          "internalType": "uint256",
          "name": "",
          "type": "uint256"
        }
      ],
      "stateMutability": "view",
      "type": "function"
    },
    {
      "inputs": [],
      "name": "totalSupply",
      "outputs": [
        {
          "internalType": "uint256",
          "name": "",
          "type": "uint256"
        }
      ],
      "stateMutability": "view",
      "type": "function"
    },
    {
      "inputs": [
        {
          "internalType": "address",
          "name": "recipient",
          "type": "address"
        },
        {
          "internalType": "uint256",
          "name": "amount",
          "type": "uint256"
        }
      ],
      "name": "transfer",
      "outputs": [
        {
          "internalType": "bool",
          "name": "",
          "type": "bool"
        }
      ],
      "stateMutability": "nonpayable",
      "type": "function"
    },
    {
      "inputs": [
        {
          "internalType": "address",
          "name": "sender",
          "type": "address"
        },
        {
          "internalType": "address",
          "name": "recipient",
          "type": "address"
        },
        {
          "internalType": "uint256",
          "name": "amount",
          "type": "uint256"
        }
      ],
      "name": "transferFrom",
      "outputs": [
        {
          "internalType": "bool",
          "name": "",
          "type": "bool"
        }
      ],
      "stateMutability": "nonpayable",
      "type": "function"
    },
    {
      "inputs": [
        {
          "internalType": "address",
          "name": "newOwner",
          "type": "address"
        }
      ],
      "name": "transferOwnership",
      "outputs": [],
      "stateMutability": "nonpayable",
      "type": "function"
    },
    {
      "inputs": [
        {
          "internalType": "address",
          "name": "_to",
          "type": "address"
        },
        {
          "internalType": "uint256",
          "name": "_amount",
          "type": "uint256"
        }
      ],
      "name": "mint",
      "outputs": [],
      "stateMutability": "nonpayable",
      "type": "function"
    },
    {
      "inputs": [
        {
          "internalType": "uint256",
          "name": "_reward",
          "type": "uint256"
        }
      ],
      "name": "setReferralReward",
      "outputs": [],
      "stateMutability": "nonpayable",
      "type": "function"
    },
    {
      "inputs": [
        {
          "internalType": "address",
          "name": "_referrer",
          "type": "address"
        }
      ],
      "name": "getReferrals",
      "outputs": [
        {
          "components": [
            {
              "internalType": "address",
              "name": "referrer",
              "type": "address"
            },
            {
              "internalType": "uint256",
              "name": "tokensEarned",
              "type": "uint256"
            }
          ],
          "internalType": "struct MINEX.Referral[]",
          "name": "",
          "type": "tuple[]"
        }
      ],
      "stateMutability": "view",
      "type": "function"
    },
    {
      "inputs": [
        {
          "internalType": "address",
          "name": "_referrer",
          "type": "address"
        }
      ],
      "name": "getTotalReferralEarnings",
      "outputs": [
        {
          "internalType": "uint256",
          "name": "",
          "type": "uint256"
        }
      ],
      "stateMutability": "view",
      "type": "function"
    },
    {
      "inputs": [
        {
          "internalType": "uint256",
          "name": "usdtAmount",
          "type": "uint256"
        }
      ],
      "name": "usdtToToken",
      "outputs": [
        {
          "internalType": "uint256",
          "name": "",
          "type": "uint256"
        }
      ],
      "stateMutability": "view",
      "type": "function"
    },
    {
      "inputs": [
        {
          "internalType": "uint256",
          "name": "tokenAmount",
          "type": "uint256"
        }
      ],
      "name": "tokenToUsdt",
      "outputs": [
        {
          "internalType": "uint256",
          "name": "",
          "type": "uint256"
        }
      ],
      "stateMutability": "view",
      "type": "function"
    },
    {
      "inputs": [
        {
          "internalType": "uint256",
          "name": "usdtAmount",
          "type": "uint256"
        },
        {
          "internalType": "address",
          "name": "referrer",
          "type": "address"
        }
      ],
      "name": "buy",
      "outputs": [],
      "stateMutability": "nonpayable",
      "type": "function"
    },
    {
      "inputs": [
        {
          "internalType": "uint256",
          "name": "xAmount",
          "type": "uint256"
        }
      ],
      "name": "sell",
      "outputs": [],
      "stateMutability": "nonpayable",
      "type": "function"
    },
    {
      "inputs": [
        {
          "internalType": "address",
          "name": "newWallet",
          "type": "address"
        }
      ],
      "name": "changeMarketingWallet",
      "outputs": [],
      "stateMutability": "nonpayable",
      "type": "function"
    },
    {
      "inputs": [
        {
          "internalType": "uint256",
          "name": "amount",
          "type": "uint256"
        }
      ],
      "name": "recoverFunds",
      "outputs": [],
      "stateMutability": "nonpayable",
      "type": "function"
    }
  ],
  "bytecode": "0x608060405261012c6007556005600855600a80546001600160a01b03191673337610d27c682e347c9cd60bd4b3b107c9d34ddd179055348015610040575f5ffd5b506040518060400160405280600681526020016509ad2dcca40b60d31b815250604051806040016040528060018152602001600b60fb1b815250816003908161008991906102a4565b50600461009682826102a4565b5050505f6100a861012260201b60201c565b600580546001600160a01b0319166001600160a01b038316908117909155604051919250905f907f8be0079c531659141344cd1fd0a4f28419497f9722a3daafe3b4186f6b6457e0908290a350600b80546001600160a01b0319163317905561011d306b06765c793fa10079d0000000610126565b610383565b3390565b6001600160a01b0382166101805760405162461bcd60e51b815260206004820152601f60248201527f45524332303a206d696e7420746f20746865207a65726f206164647265737300604482015260640160405180910390fd5b8060025461018e919061035e565b6002556001600160a01b0382165f908152602081905260409020546101b490829061035e565b6001600160a01b0383165f81815260208181526040808320949094559251848152919290917fddf252ad1be2c89b69c2b068fc378daa952ba7f163c4a11628f55a4df523b3ef910160405180910390a35050565b505050565b634e487b7160e01b5f52604160045260245ffd5b600181811c9082168061023557607f821691505b60208210810361025357634e487b7160e01b5f52602260045260245ffd5b50919050565b601f82111561020857805f5260205f20601f840160051c8101602085101561027e5750805b601f840160051c820191505b8181101561029d575f815560010161028a565b5050505050565b81516001600160401b038111156102bd576102bd61020d565b6102d1816102cb8454610221565b84610259565b6020601f821160018114610303575f83156102ec5750848201515b5f19600385901b1c1916600184901b17845561029d565b5f84815260208120601f198516915b828110156103325787850151825560209485019460019092019101610312565b508482101561034f57868401515f19600387901b60f8161c191681555b50505050600190811b01905550565b8082018082111561037d57634e487b7160e01b5f52601160045260245ffd5b92915050565b611461806103905f395ff3fe608060405234801561000f575f5ffd5b50600436106101d1575f3560e01c8063715018a6116100fe57806395d89b411161009e578063dd62ed3e1161006e578063dd62ed3e1461040f578063e4849b3214610447578063e697b5d81461045a578063f2fde38b1461048c575f5ffd5b806395d89b41146103ce578063a9059cbb146103d6578063bb85c6d1146103e9578063cc8a6154146103fc575f5ffd5b8063813d4453116100d9578063813d4453146103605780638da5cb5b146103885780638fb6c6f61461039957806390118fb4146103ac575f5ffd5b8063715018a61461033257806375f0a8741461033a5780637deb60251461034d575f5ffd5b806340c10f1911610174578063486047dc11610144578063486047dc146102db5780634ab358c7146102ee5780634d6836741461030157806370a082311461030a575f5ffd5b806340c10f191461027e57806341a0894d14610293578063446d49da146102b357806346b6ef41146102bc575f5ffd5b806323b872dd116101af57806323b872dd146102285780633013ce291461023b578063313ce567146102665780633ba0b9a914610275575f5ffd5b806306fdde03146101d5578063095ea7b3146101f357806318160ddd14610216575b5f5ffd5b6101dd61049f565b6040516101ea919061112f565b60405180910390f35b61020661020136600461117f565b61052f565b60405190151581526020016101ea565b6002545b6040519081526020016101ea565b6102066102363660046111a7565b610545565b600a5461024e906001600160a01b031681565b6040516001600160a01b0390911681526020016101ea565b604051601281526020016101ea565b61021a60075481565b61029161028c36600461117f565b610595565b005b6102a66102a13660046111e1565b6105d6565b6040516101ea9190611201565b61021a60095481565b61021a6102ca3660046111e1565b600d6020525f908152604090205481565b61021a6102e9366004611258565b61065f565b6102916102fc366004611258565b61066e565b61021a60085481565b61021a6103183660046111e1565b6001600160a01b03165f9081526020819052604090205490565b610291610721565b600b5461024e906001600160a01b031681565b61029161035b36600461126f565b610794565b61021a61036e3660046111e1565b6001600160a01b03165f908152600d602052604090205490565b6005546001600160a01b031661024e565b6102916103a7366004611258565b610a84565b6102066103ba3660046111e1565b600e6020525f908152604090205460ff1681565b6101dd610abc565b6102066103e436600461117f565b610acb565b6102916103f73660046111e1565b610ad7565b61021a61040a366004611258565b610b2c565b61021a61041d366004611299565b6001600160a01b039182165f90815260016020908152604080832093909416825291909152205490565b610291610455366004611258565b610b3b565b61046d61046836600461117f565b610c11565b604080516001600160a01b0390931683526020830191909152016101ea565b61029161049a3660046111e1565b610c53565b6060600380546104ae906112c1565b80601f01602080910402602001604051908101604052809291908181526020018280546104da906112c1565b80156105255780601f106104fc57610100808354040283529160200191610525565b820191905f5260205f20905b81548152906001019060200180831161050857829003601f168201915b5050505050905090565b5f61053b338484610d3d565b5060015b92915050565b5f610551848484610e61565b6001600160a01b0384165f9081526001602090815260408083203380855292529091205461058b91869161058690869061130d565b610d3d565b5060019392505050565b6005546001600160a01b031633146105c85760405162461bcd60e51b81526004016105bf90611320565b60405180910390fd5b6105d28282610fc9565b5050565b6001600160a01b0381165f908152600c60209081526040808320805482518185028101850190935280835260609492939192909184015b82821015610654575f848152602090819020604080518082019091526002850290910180546001600160a01b0316825260019081015482840152908352909201910161060d565b505050509050919050565b5f6007548261053f9190611355565b600b546001600160a01b0316336001600160a01b0316146106a15760405162461bcd60e51b81526004016105bf9061136c565b600a546001600160a01b031663a9059cbb336040516001600160e01b031960e084901b1681526001600160a01b039091166004820152602481018490526044016020604051808303815f875af11580156106fd573d5f5f3e3d5ffd5b505050506040513d601f19601f820116820180604052508101906105d291906113ad565b6005546001600160a01b0316331461074b5760405162461bcd60e51b81526004016105bf90611320565b6005546040515f916001600160a01b0316907f8be0079c531659141344cd1fd0a4f28419497f9722a3daafe3b4186f6b6457e0908390a3600580546001600160a01b0319169055565b5f600754836107a39190611355565b600a549091505f906001600160a01b031663dd62ed3e336040516001600160e01b031960e084901b1681526001600160a01b039091166004820152306024820152604401602060405180830381865afa158015610802573d5f5f3e3d5ffd5b505050506040513d601f19601f8201168201806040525081019061082691906113cc565b9050808411156108825760405162461bcd60e51b815260206004820152602160248201527f4d616b65207375726520746f2061646420656e6f75676820616c6c6f77616e636044820152606560f81b60648201526084016105bf565b600a545f906001600160a01b0316336040516001600160a01b0390911660248201523060448201526064810187905260840160408051601f198184030181529181526020820180516001600160e01b03166323b872dd60e01b179052516108e991906113e3565b5f604051808303815f865af19150503d805f8114610922576040519150601f19603f3d011682016040523d82523d5f602084013e610927565b606091505b505090508061096f5760405162461bcd60e51b8152602060048201526014602482015273151bdad95b881c185e5b595b9d0819985a5b195960621b60448201526064016105bf565b335f908152600e602052604090205460ff1615801561099657506001600160a01b03841615155b80156109ab57506001600160a01b0384163314155b80156109ce57506001600160a01b0384165f908152600e602052604090205460ff165b15610a1e575f6064600854856109e49190611355565b6109ee91906113f9565b90506109fb8533836110a7565b610a06308683610e61565b8060095f828254610a179190611418565b9091555050505b335f908152600e60205260409020805460ff19166001179055610a4830610a423390565b85610e61565b60405183815233907fe3d4187f6ca4248660cc0ac8b8056515bac4a8132be2eca31d6d0cc170722a7e9060200160405180910390a25050505050565b600b546001600160a01b0316336001600160a01b031614610ab75760405162461bcd60e51b81526004016105bf9061136c565b600855565b6060600480546104ae906112c1565b5f61053b338484610e61565b600b546001600160a01b0316336001600160a01b031614610b0a5760405162461bcd60e51b81526004016105bf9061136c565b600b80546001600160a01b0319166001600160a01b0392909216919091179055565b5f6007548261053f91906113f9565b5f60075482610b4a91906113f9565b9050610b57333084610e61565b600a546001600160a01b031663a9059cbb336040516001600160e01b031960e084901b1681526001600160a01b039091166004820152602481018490526044016020604051808303815f875af1158015610bb3573d5f5f3e3d5ffd5b505050506040513d601f19601f82011682018060405250810190610bd791906113ad565b5060405182815233907f5e5e995ce3133561afceaa51a9a154d5db228cd7525d34df5185582c18d3df099060200160405180910390a25050565b600c602052815f5260405f208181548110610c2a575f80fd5b5f918252602090912060029091020180546001909101546001600160a01b039091169250905082565b6005546001600160a01b03163314610c7d5760405162461bcd60e51b81526004016105bf90611320565b6001600160a01b038116610ce25760405162461bcd60e51b815260206004820152602660248201527f4f776e61626c653a206e6577206f776e657220697320746865207a65726f206160448201526564647265737360d01b60648201526084016105bf565b6005546040516001600160a01b038084169216907f8be0079c531659141344cd1fd0a4f28419497f9722a3daafe3b4186f6b6457e0905f90a3600580546001600160a01b0319166001600160a01b0392909216919091179055565b6001600160a01b038316610d9f5760405162461bcd60e51b8152602060048201526024808201527f45524332303a20617070726f76652066726f6d20746865207a65726f206164646044820152637265737360e01b60648201526084016105bf565b6001600160a01b038216610e005760405162461bcd60e51b815260206004820152602260248201527f45524332303a20617070726f766520746f20746865207a65726f206164647265604482015261737360f01b60648201526084016105bf565b6001600160a01b038381165f8181526001602090815260408083209487168084529482529182902085905590518481527f8c5be1e5ebec7d5bd14f71427d1e84f3dd0314c0f7b2291e5b200ac8c7c3b92591015b60405180910390a3505050565b6001600160a01b038316610ec55760405162461bcd60e51b815260206004820152602560248201527f45524332303a207472616e736665722066726f6d20746865207a65726f206164604482015264647265737360d81b60648201526084016105bf565b6001600160a01b038216610f275760405162461bcd60e51b815260206004820152602360248201527f45524332303a207472616e7366657220746f20746865207a65726f206164647260448201526265737360e81b60648201526084016105bf565b6001600160a01b0383165f90815260208190526040902054610f4a90829061130d565b6001600160a01b038085165f908152602081905260408082209390935590841681522054610f79908290611418565b6001600160a01b038381165f818152602081815260409182902094909455518481529092918616917fddf252ad1be2c89b69c2b068fc378daa952ba7f163c4a11628f55a4df523b3ef9101610e54565b6001600160a01b03821661101f5760405162461bcd60e51b815260206004820152601f60248201527f45524332303a206d696e7420746f20746865207a65726f20616464726573730060448201526064016105bf565b8060025461102d9190611418565b6002556001600160a01b0382165f90815260208190526040902054611053908290611418565b6001600160a01b0383165f81815260208181526040808320949094559251848152919290917fddf252ad1be2c89b69c2b068fc378daa952ba7f163c4a11628f55a4df523b3ef910160405180910390a35050565b6001600160a01b038381165f818152600c602090815260408083208151808301835288871681528084018881528254600180820185559387528587209251600290910290920180546001600160a01b0319169290981691909117875551950194909455918152600d9091529081208054839290611125908490611418565b9091555050505050565b602081525f82518060208401528060208501604085015e5f604082850101526040601f19601f83011684010191505092915050565b80356001600160a01b038116811461117a575f5ffd5b919050565b5f5f60408385031215611190575f5ffd5b61119983611164565b946020939093013593505050565b5f5f5f606084860312156111b9575f5ffd5b6111c284611164565b92506111d060208501611164565b929592945050506040919091013590565b5f602082840312156111f1575f5ffd5b6111fa82611164565b9392505050565b602080825282518282018190525f918401906040840190835b8181101561124d57835180516001600160a01b03168452602090810151818501529093019260409092019160010161121a565b509095945050505050565b5f60208284031215611268575f5ffd5b5035919050565b5f5f60408385031215611280575f5ffd5b8235915061129060208401611164565b90509250929050565b5f5f604083850312156112aa575f5ffd5b6112b383611164565b915061129060208401611164565b600181811c908216806112d557607f821691505b6020821081036112f357634e487b7160e01b5f52602260045260245ffd5b50919050565b634e487b7160e01b5f52601160045260245ffd5b8181038181111561053f5761053f6112f9565b6020808252818101527f4f776e61626c653a2063616c6c6572206973206e6f7420746865206f776e6572604082015260600190565b808202811582820484141761053f5761053f6112f9565b60208082526021908201527f6f6e6c79206d61726b6574696e672077616c6c65742063616e206163636573736040820152602160f81b606082015260800190565b5f602082840312156113bd575f5ffd5b815180151581146111fa575f5ffd5b5f602082840312156113dc575f5ffd5b5051919050565b5f82518060208501845e5f920191825250919050565b5f8261141357634e487b7160e01b5f52601260045260245ffd5b500490565b8082018082111561053f5761053f6112f956fea26469706673582212201ddc278d3e1c93242a3d6dc1de3a3957c17100a52285e7531c3372acdf40274d64736f6c634300081d0033",
  "immutableReferences": {},
  "source": "/**\r\n *Submitted for verification at testnet.bscscan.com on 2025-04-09\r\n*/\r\n\r\n// SPDX-License-Identifier: MIT\r\npragma solidity 0.8.29;\r\n\r\n/**\r\n * @dev Interface of the ERC20 standard as defined in the EIP.\r\n */\r\ninterface IERC20 {\r\n    /**\r\n     * @dev Returns the amount of tokens in existence.\r\n     */\r\n    function totalSupply() external view returns (uint256);\r\n\r\n    /**\r\n     * @dev Returns the amount of tokens owned by `account`.\r\n     */\r\n    function balanceOf(address account) external view returns (uint256);\r\n\r\n    /**\r\n     * @dev Moves `amount` tokens from the caller's account to `recipient`.\r\n     *\r\n     * Returns a boolean value indicating whether the operation succeeded.\r\n     *\r\n     * Emits a {Transfer} event.\r\n     */\r\n    function transfer(address recipient, uint256 amount) external returns (bool);\r\n\r\n    /**\r\n     * @dev Returns the remaining number of tokens that `spender` will be\r\n     * allowed to spend on behalf of `owner` through {transferFrom}. This is\r\n     * zero by default.\r\n     *\r\n     * This value changes when {approve} or {transferFrom} are called.\r\n     */\r\n    function allowance(address owner, address spender) external view returns (uint256);\r\n\r\n    /**\r\n     * @dev Sets `amount` as the allowance of `spender` over the caller's tokens.\r\n     *\r\n     * Returns a boolean value indicating whether the operation succeeded.\r\n     *\r\n     * IMPORTANT: Beware that changing an allowance with this method brings the risk\r\n     * that someone may use both the old and the new allowance by unfortunate\r\n     * transaction ordering. One possible solution to mitigate this race\r\n     * condition is to first reduce the spender's allowance to 0 and set the\r\n     * desired value afterwards:\r\n     * https://github.com/ethereum/EIPs/issues/20#issuecomment-263524729\r\n     *\r\n     * Emits an {Approval} event.\r\n     */\r\n    function approve(address spender, uint256 amount) external returns (bool);\r\n\r\n    /**\r\n     * @dev Moves `amount` tokens from `sender` to `recipient` using the\r\n     * allowance mechanism. `amount` is then deducted from the caller's\r\n     * allowance.\r\n     *\r\n     * Returns a boolean value indicating whether the operation succeeded.\r\n     *\r\n     * Emits a {Transfer} event.\r\n     */\r\n    function transferFrom(\r\n        address sender,\r\n        address recipient,\r\n        uint256 amount\r\n    ) external returns (bool);\r\n\r\n    /**\r\n     * @dev Emitted when `value` tokens are moved from one account (`from`) to\r\n     * another (`to`).\r\n     *\r\n     * Note that `value` may be zero.\r\n     */\r\n    event Transfer(address indexed from, address indexed to, uint256 value);\r\n\r\n    /**\r\n     * @dev Emitted when the allowance of a `spender` for an `owner` is set by\r\n     * a call to {approve}. `value` is the new allowance.\r\n     */\r\n    event Approval(address indexed owner, address indexed spender, uint256 value);\r\n}\r\n\r\n/**\r\n * @dev Interface for the optional metadata functions from the ERC20 standard.\r\n *\r\n * _Available since v4.1._\r\n */\r\ninterface IERC20Metadata is IERC20 {\r\n    /**\r\n     * @dev Returns the name of the token.\r\n     */\r\n    function name() external view returns (string memory);\r\n\r\n    /**\r\n     * @dev Returns the symbol of the token.\r\n     */\r\n    function symbol() external view returns (string memory);\r\n\r\n    /**\r\n     * @dev Returns the decimals places of the token.\r\n     */\r\n    function decimals() external view returns (uint8);\r\n}\r\n\r\n\r\n/*\r\n * @dev Provides information about the current execution context, including the\r\n * sender of the transaction and its data. While these are generally available\r\n * via msg.sender and msg.data, they should not be accessed in such a direct\r\n * manner, since when dealing with meta-transactions the account sending and\r\n * paying for execution may not be the actual sender (as far as an application\r\n * is concerned).\r\n *\r\n * This contract is only required for intermediate, library-like contracts.\r\n */\r\nabstract contract Context {\r\n\r\n    function _msgSender() internal view virtual returns (address) {\r\n        return msg.sender;\r\n    }\r\n\r\n}\r\n\r\n\r\n/**\r\n * @dev Contract module which provides a basic access control mechanism, where\r\n * there is an account (an owner) that can be granted exclusive access to\r\n * specific functions.\r\n *\r\n * By default, the owner account will be the one that deploys the contract. This\r\n * can later be changed with {transferOwnership}.\r\n *\r\n * This module is used through inheritance. It will make available the modifier\r\n * `onlyOwner`, which can be applied to your functions to restrict their use to\r\n * the owner.\r\n */\r\nabstract contract Ownable is Context {\r\n    address private _owner;\r\n    address private _previousOwner;\r\n\r\n    event OwnershipTransferred(address indexed previousOwner, address indexed newOwner);\r\n\r\n    /**\r\n     * @dev Initializes the contract setting the deployer as the initial owner.\r\n     */\r\n    constructor () {\r\n        address msgSender = _msgSender();\r\n        _owner = msgSender;\r\n        emit OwnershipTransferred(address(0), msgSender);\r\n    }\r\n\r\n    /**\r\n     * @dev Returns the address of the current owner.\r\n     */\r\n    function owner() public view virtual returns (address) {\r\n        return _owner;\r\n    }\r\n\r\n    /**\r\n     * @dev Throws if called by any account other than the owner.\r\n     */\r\n    modifier onlyOwner() {\r\n        require(owner() == _msgSender(), \"Ownable: caller is not the owner\");\r\n        _;\r\n    }\r\n\r\n    /**\r\n     * @dev Leaves the contract without owner. It will not be possible to call\r\n     * `onlyOwner` functions anymore. Can only be called by the current owner.\r\n     *\r\n     * NOTE: Renouncing ownership will leave the contract without an owner,\r\n     * thereby removing any functionality that is only available to the owner.\r\n     */\r\n    function renounceOwnership() public virtual onlyOwner {\r\n        emit OwnershipTransferred(_owner, address(0));\r\n        _owner = address(0);\r\n    }\r\n\r\n    /**\r\n     * @dev Transfers ownership of the contract to a new account (`newOwner`).\r\n     * Can only be called by the current owner.\r\n     */\r\n    function transferOwnership(address newOwner) public virtual onlyOwner {\r\n        require(newOwner != address(0), \"Ownable: new owner is the zero address\");\r\n        emit OwnershipTransferred(_owner, newOwner);\r\n        _owner = newOwner;\r\n    }\r\n}\r\n\r\n\r\n/**\r\n * @dev Implementation of the {IERC20} interface.\r\n *\r\n * This implementation is agnostic to the way tokens are created. This means\r\n * that a supply mechanism has to be added in a derived contract using {_mint}.\r\n * For a generic mechanism see {ERC20PresetMinterPauser}.\r\n *\r\n * TIP: For a detailed writeup see our guide\r\n * https://forum.zeppelin.solutions/t/how-to-implement-erc20-supply-mechanisms/226[How\r\n * to implement supply mechanisms].\r\n *\r\n * We have followed general OpenZeppelin guidelines: functions revert instead\r\n * of returning `false` on failure. This behavior is nonetheless conventional\r\n * and does not conflict with the expectations of ERC20 applications.\r\n *\r\n * Additionally, an {Approval} event is emitted on calls to {transferFrom}.\r\n * This allows applications to reconstruct the allowance for all accounts just\r\n * by listening to said events. Other implementations of the EIP may not emit\r\n * these events, as it isn't required by the specification.\r\n *\r\n * Finally, the non-standard {decreaseAllowance} and {increaseAllowance}\r\n * functions have been added to mitigate the well-known issues around setting\r\n * allowances. See {IERC20-approve}.\r\n */\r\ncontract ERC20 is Context, IERC20, IERC20Metadata {\r\n\r\n    mapping(address => uint256) private _balances;\r\n\r\n    mapping(address => mapping(address => uint256)) private _allowances;\r\n\r\n    uint256 private _totalSupply;\r\n\r\n    string private _name;\r\n    string private _symbol;\r\n\r\n    /**\r\n     * @dev Sets the values for {name} and {symbol}.\r\n     *\r\n     * The default value of {decimals} is 18. To select a different value for\r\n     * {decimals} you should overload it.\r\n     *\r\n     * All two of these values are immutable: they can only be set once during\r\n     * construction.\r\n     */\r\n    constructor(string memory name_, string memory symbol_)  {\r\n        _name = name_;\r\n        _symbol = symbol_;\r\n    }\r\n\r\n    /**\r\n     * @dev Returns the name of the token.\r\n     */\r\n    function name() public view virtual override returns (string memory) {\r\n        return _name;\r\n    }\r\n\r\n    /**\r\n     * @dev Returns the symbol of the token, usually a shorter version of the\r\n     * name.\r\n     */\r\n    function symbol() public view virtual override returns (string memory) {\r\n        return _symbol;\r\n    }\r\n\r\n    /**\r\n     * @dev Returns the number of decimals used to get its user representation.\r\n     * For example, if `decimals` equals `2`, a balance of `505` tokens should\r\n     * be displayed to a user as `5,05` (`505 / 10 ** 2`).\r\n     *\r\n     * Tokens usually opt for a value of 18, imitating the relationship between\r\n     * Ether and Wei. This is the value {ERC20} uses, unless this function is\r\n     * overridden;\r\n     *\r\n     * NOTE: This information is only used for _display_ purposes: it in\r\n     * no way affects any of the arithmetic of the contract, including\r\n     * {IERC20-balanceOf} and {IERC20-transfer}.\r\n     */\r\n    function decimals() public view virtual override returns (uint8) {\r\n        return 18;\r\n    }\r\n\r\n    /**\r\n     * @dev See {IERC20-totalSupply}.\r\n     */\r\n    function totalSupply() public view virtual override returns (uint256) {\r\n        return _totalSupply;\r\n    }\r\n\r\n    /**\r\n     * @dev See {IERC20-balanceOf}.\r\n     */\r\n    function balanceOf(address account) public view virtual override returns (uint256) {\r\n        return _balances[account];\r\n    }\r\n\r\n    /**\r\n     * @dev See {IERC20-transfer}.\r\n     *\r\n     * Requirements:\r\n     *\r\n     * - `recipient` cannot be the zero address.\r\n     * - the caller must have a balance of at least `amount`.\r\n     */\r\n    function transfer(address recipient, uint256 amount) public virtual override returns (bool) {\r\n        _transfer(_msgSender(), recipient, amount);\r\n        return true;\r\n    }\r\n\r\n    /**\r\n     * @dev See {IERC20-allowance}.\r\n     */\r\n    function allowance(address owner, address spender) public view virtual override returns (uint256) {\r\n        return _allowances[owner][spender];\r\n    }\r\n\r\n    /**\r\n     * @dev See {IERC20-approve}.\r\n     *\r\n     * Requirements:\r\n     *\r\n     * - `spender` cannot be the zero address.\r\n     */\r\n    function approve(address spender, uint256 amount) public virtual override returns (bool) {\r\n        _approve(_msgSender(), spender, amount);\r\n        return true;\r\n    }\r\n\r\n    /**\r\n     * @dev See {IERC20-transferFrom}.\r\n     *\r\n     * Emits an {Approval} event indicating the updated allowance. This is not\r\n     * required by the EIP. See the note at the beginning of {ERC20}.\r\n     *\r\n     * Requirements:\r\n     *\r\n     * - `sender` and `recipient` cannot be the zero address.\r\n     * - `sender` must have a balance of at least `amount`.\r\n     * - the caller must have allowance for ``sender``'s tokens of at least\r\n     * `amount`.\r\n     */\r\n    function transferFrom(\r\n        address sender,\r\n        address recipient,\r\n        uint256 amount\r\n    ) public virtual override returns (bool) {\r\n        _transfer(sender, recipient, amount);\r\n        _approve(sender, _msgSender(), (_allowances[sender][_msgSender()] - amount));\r\n        return true;\r\n    }\r\n\r\n    /**\r\n     * @dev Moves tokens `amount` from `sender` to `recipient`.\r\n     *\r\n     * This is internal function is equivalent to {transfer}, and can be used to\r\n     * e.g. implement automatic token fees, slashing mechanisms, etc.\r\n     *\r\n     * Emits a {Transfer} event.\r\n     *\r\n     * Requirements:\r\n     *\r\n     * - `sender` cannot be the zero address.\r\n     * - `recipient` cannot be the zero address.\r\n     * - `sender` must have a balance of at least `amount`.\r\n     */\r\n    function _transfer(\r\n        address sender,\r\n        address recipient,\r\n        uint256 amount\r\n    ) internal virtual {\r\n        require(sender != address(0), \"ERC20: transfer from the zero address\");\r\n        require(recipient != address(0), \"ERC20: transfer to the zero address\");\r\n\r\n        _beforeTokenTransfer(sender, recipient, amount);\r\n\r\n        _balances[sender] = (_balances[sender]-amount);\r\n        _balances[recipient] = (_balances[recipient]+amount);\r\n        emit Transfer(sender, recipient, amount);\r\n    }\r\n\r\n    /** @dev Creates `amount` tokens and assigns them to `account`, increasing\r\n     * the total supply.\r\n     *\r\n     * Emits a {Transfer} event with `from` set to the zero address.\r\n     *\r\n     * Requirements:\r\n     *\r\n     * - `account` cannot be the zero address.\r\n     */\r\n    function _mint(address account, uint256 amount) internal virtual {\r\n        require(account != address(0), \"ERC20: mint to the zero address\");\r\n\r\n        _beforeTokenTransfer(address(0), account, amount);\r\n\r\n        _totalSupply = _totalSupply+amount;\r\n        _balances[account] = (_balances[account]+amount);\r\n        emit Transfer(address(0), account, amount);\r\n    }\r\n\r\n    /**\r\n     * @dev Destroys `amount` tokens from `account`, reducing the\r\n     * total supply.\r\n     *\r\n     * Emits a {Transfer} event with `to` set to the zero address.\r\n     *\r\n     * Requirements:\r\n     *\r\n     * - `account` cannot be the zero address.\r\n     * - `account` must have at least `amount` tokens.\r\n     */\r\n    function _burn(address account, uint256 amount) internal virtual {\r\n        require(account != address(0), \"ERC20: burn from the zero address\");\r\n\r\n        _beforeTokenTransfer(account, address(0), amount);\r\n\r\n        _balances[account] = (_balances[account]-amount);\r\n        _totalSupply = (_totalSupply-amount);\r\n        emit Transfer(account, address(0), amount);\r\n    }\r\n\r\n    /**\r\n     * @dev Sets `amount` as the allowance of `spender` over the `owner` s tokens.\r\n     *\r\n     * This internal function is equivalent to `approve`, and can be used to\r\n     * e.g. set automatic allowances for certain subsystems, etc.\r\n     *\r\n     * Emits an {Approval} event.\r\n     *\r\n     * Requirements:\r\n     *\r\n     * - `owner` cannot be the zero address.\r\n     * - `spender` cannot be the zero address.\r\n     */\r\n    function _approve(\r\n        address owner,\r\n        address spender,\r\n        uint256 amount\r\n    ) internal virtual {\r\n        require(owner != address(0), \"ERC20: approve from the zero address\");\r\n        require(spender != address(0), \"ERC20: approve to the zero address\");\r\n\r\n        _allowances[owner][spender] = amount;\r\n        emit Approval(owner, spender, amount);\r\n    }\r\n\r\n    /**\r\n     * @dev Hook that is called before any transfer of tokens. This includes\r\n     * minting and burning.\r\n     *\r\n     * Calling conditions:\r\n     *\r\n     * - when `from` and `to` are both non-zero, `amount` of ``from``'s tokens\r\n     * will be to transferred to `to`.\r\n     * - when `from` is zero, `amount` tokens will be minted for `to`.\r\n     * - when `to` is zero, `amount` of ``from``'s tokens will be burned.\r\n     * - `from` and `to` are never both zero.\r\n     *\r\n     * To learn more about hooks, head to xref:ROOT:extending-contracts.adoc#using-hooks[Using Hooks].\r\n     */\r\n    function _beforeTokenTransfer(\r\n        address from,\r\n        address to,\r\n        uint256 amount\r\n    ) internal virtual {}\r\n}\r\n\r\ncontract MINEX is ERC20, Ownable {\r\n\r\n    uint256 public exchangeRate = 300; // 1 USDT = 300 X Coins\r\n    uint256 public referralReward = 5; // 5% (default)\r\n    uint256 public totalReferralsDistributed;\r\n\r\n     //Testnet\r\n    IERC20Metadata public paymentToken = IERC20Metadata(0x337610d27c682E347C9cD60BD4b3b107C9d34dDd);\r\n\r\n    address public marketingWallet;\r\n\r\n    struct Referral {\r\n        address referrer;\r\n        uint256 tokensEarned; // Tokens earned from this referral\r\n    }\r\n\r\n    mapping(address => Referral[]) public referrals;\r\n    mapping(address => uint256) public totalReferralEarnings;\r\n    mapping(address => bool) public hasPurchased;\r\n\r\n    event Buy(address indexed buyer, uint256 amount);\r\n    event Sell(address indexed seller, uint256 amount);\r\n    \r\n    constructor() ERC20(\"Mine X\", \"X\") { \r\n\r\n        marketingWallet = _msgSender();\r\n\r\n        _mint(address(this), 2000000000 * (10**18));\r\n    }\r\n\r\n   /// @notice Creates `_amount` token to `_to`. Must only be called by the owner (Staking Contract).\r\n    function mint(address _to, uint256 _amount) external  onlyOwner {\r\n        _mint(_to, _amount);\r\n    }\r\n\r\n    function setReferralReward(uint256 _reward) external {\r\n        require(_msgSender() == marketingWallet, \"only marketing wallet can access!\");\r\n        referralReward = _reward;\r\n    }\r\n\r\n    function addReferral(address _referrer, address _referee, uint256 _tokensEarned) internal  {\r\n        referrals[_referrer].push(Referral(_referee, _tokensEarned));\r\n        totalReferralEarnings[_referrer] += _tokensEarned;\r\n    }\r\n\r\n    function getReferrals(address _referrer) public view returns (Referral[] memory) {\r\n        return referrals[_referrer];\r\n    }\r\n\r\n    function getTotalReferralEarnings(address _referrer) public view returns (uint256) {\r\n        return totalReferralEarnings[_referrer];\r\n    }\r\n\r\n    function usdtToToken(uint256 usdtAmount) external  view returns (uint256){\r\n        return  (usdtAmount) * exchangeRate;\r\n    }\r\n    \r\n    function tokenToUsdt(uint256 tokenAmount) external  view returns (uint256){\r\n        return  (tokenAmount) / exchangeRate;\r\n    }\r\n\r\n    function buy(uint256 usdtAmount, address referrer) external {\r\n        uint256 xAmount = (usdtAmount) * exchangeRate;\r\n\r\n        uint256 ourAllowance = paymentToken.allowance(\r\n            _msgSender(),\r\n            address(this)\r\n        );\r\n        require(usdtAmount <= ourAllowance, \"Make sure to add enough allowance\");\r\n        (bool success, ) = address(paymentToken).call(\r\n            abi.encodeWithSignature(\r\n                \"transferFrom(address,address,uint256)\",\r\n                _msgSender(),\r\n                address(this),\r\n                usdtAmount\r\n            )\r\n        );\r\n\r\n        require(success, \"Token payment failed\");\r\n\r\n        // Handle referral \r\n        if (!hasPurchased[_msgSender()] && referrer != address(0) && referrer != _msgSender() && hasPurchased[referrer]) {\r\n            uint256 reward = (xAmount * referralReward) / 100;\r\n            addReferral(referrer, _msgSender(), reward);\r\n            super._transfer(address(this), referrer, reward);\r\n            totalReferralsDistributed += reward;           \r\n\r\n        }\r\n\r\n         hasPurchased[msg.sender] = true;\r\n        super._transfer(address(this), _msgSender(), xAmount);\r\n        emit Buy(_msgSender(), xAmount);\r\n    }\r\n\r\n    function sell(uint256 xAmount) external {\r\n        uint256 usdtAmount = (xAmount / exchangeRate);\r\n\r\n        super._transfer(_msgSender(), address(this), xAmount);\r\n\r\n        IERC20(paymentToken).transfer(_msgSender(), usdtAmount); \r\n        \r\n        emit Sell(_msgSender(), xAmount);\r\n    }\r\n\r\n    function changeMarketingWallet(address newWallet) external {\r\n      require(_msgSender() == marketingWallet, \"only marketing wallet can access!\");\r\n      marketingWallet = newWallet;\r\n    }\r\n\r\n    function recoverFunds(uint256 amount) external {\r\n        require(_msgSender() == marketingWallet, \"only marketing wallet can access!\");\r\n        IERC20(paymentToken).transfer(_msgSender(), amount);\r\n    }\r\n}",
  "sourcePath": "D:\\SafeZone_Dashboard\\SafeZone_Dashboard\\contracts\\MINEX.sol",
  "compiler": {
    "name": "solc",
    "version": "0.8.29+commit.ab55807c.Emscripten.clang"
  },
  "schemaVersion": "3.4.14",
  "updatedAt": "2025-04-09T11:52:12.792Z",
  "devdoc": {
    "events": {
      "Approval(address,address,uint256)": {
        "details": "Emitted when the allowance of a `spender` for an `owner` is set by a call to {approve}. `value` is the new allowance."
      },
      "Transfer(address,address,uint256)": {
        "details": "Emitted when `value` tokens are moved from one account (`from`) to another (`to`). Note that `value` may be zero."
      }
    },
    "kind": "dev",
    "methods": {
      "allowance(address,address)": {
        "details": "See {IERC20-allowance}."
      },
      "approve(address,uint256)": {
        "details": "See {IERC20-approve}. Requirements: - `spender` cannot be the zero address."
      },
      "balanceOf(address)": {
        "details": "See {IERC20-balanceOf}."
      },
      "decimals()": {
        "details": "Returns the number of decimals used to get its user representation. For example, if `decimals` equals `2`, a balance of `505` tokens should be displayed to a user as `5,05` (`505 / 10 ** 2`). Tokens usually opt for a value of 18, imitating the relationship between Ether and Wei. This is the value {ERC20} uses, unless this function is overridden; NOTE: This information is only used for _display_ purposes: it in no way affects any of the arithmetic of the contract, including {IERC20-balanceOf} and {IERC20-transfer}."
      },
      "name()": {
        "details": "Returns the name of the token."
      },
      "owner()": {
        "details": "Returns the address of the current owner."
      },
      "renounceOwnership()": {
        "details": "Leaves the contract without owner. It will not be possible to call `onlyOwner` functions anymore. Can only be called by the current owner. NOTE: Renouncing ownership will leave the contract without an owner, thereby removing any functionality that is only available to the owner."
      },
      "symbol()": {
        "details": "Returns the symbol of the token, usually a shorter version of the name."
      },
      "totalSupply()": {
        "details": "See {IERC20-totalSupply}."
      },
      "transfer(address,uint256)": {
        "details": "See {IERC20-transfer}. Requirements: - `recipient` cannot be the zero address. - the caller must have a balance of at least `amount`."
      },
      "transferFrom(address,address,uint256)": {
        "details": "See {IERC20-transferFrom}. Emits an {Approval} event indicating the updated allowance. This is not required by the EIP. See the note at the beginning of {ERC20}. Requirements: - `sender` and `recipient` cannot be the zero address. - `sender` must have a balance of at least `amount`. - the caller must have allowance for ``sender``'s tokens of at least `amount`."
      },
      "transferOwnership(address)": {
        "details": "Transfers ownership of the contract to a new account (`newOwner`). Can only be called by the current owner."
      }
    },
    "version": 1
  },
  "userdoc": {
    "kind": "user",
    "methods": {
      "mint(address,uint256)": {
        "notice": "Creates `_amount` token to `_to`. Must only be called by the owner (Staking Contract)."
      }
    },
    "version": 1
  }
}